{
  "_format": "hh-sol-artifact-1",
  "contractName": "Name",
  "sourceName": "contracts/Name.sol",
  "abi": [
    {
      "anonymous": false,
      "inputs": [
        {
          "indexed": false,
          "internalType": "string",
          "name": "name",
          "type": "string"
        }
      ],
      "name": "NameSet",
      "type": "event"
    },
    {
      "inputs": [],
      "name": "name",
      "outputs": [
        {
          "internalType": "string",
          "name": "",
          "type": "string"
        }
      ],
      "stateMutability": "view",
      "type": "function"
    },
    {
      "inputs": [],
      "name": "readName",
      "outputs": [
        {
          "internalType": "string",
          "name": "",
          "type": "string"
        }
      ],
      "stateMutability": "view",
      "type": "function"
    },
    {
      "inputs": [
        {
          "internalType": "string",
          "name": "newName",
          "type": "string"
        }
      ],
      "name": "setName",
      "outputs": [],
      "stateMutability": "nonpayable",
      "type": "function"
    }
  ],
  "bytecode": "0x60806040526040518060400160405280600981526020017f536f6d65206e616d6500000000000000000000000000000000000000000000008152506000908051906020019061004f929190610062565b5034801561005c57600080fd5b50610166565b82805461006e90610105565b90600052602060002090601f01602090048101928261009057600085556100d7565b82601f106100a957805160ff19168380011785556100d7565b828001600101855582156100d7579182015b828111156100d65782518255916020019190600101906100bb565b5b5090506100e491906100e8565b5090565b5b808211156101015760008160009055506001016100e9565b5090565b6000600282049050600182168061011d57607f821691505b6020821081141561013157610130610137565b5b50919050565b7f4e487b7100000000000000000000000000000000000000000000000000000000600052602260045260246000fd5b610604806101756000396000f3fe608060405234801561001057600080fd5b50600436106100415760003560e01c806306fdde031461004657806339793ea914610064578063c47f002714610082575b600080fd5b61004e61009e565b60405161005b9190610415565b60405180910390f35b61006c61012c565b6040516100799190610415565b60405180910390f35b61009c6004803603810190610097919061031b565b6101be565b005b600080546100ab9061052d565b80601f01602080910402602001604051908101604052809291908181526020018280546100d79061052d565b80156101245780601f106100f957610100808354040283529160200191610124565b820191906000526020600020905b81548152906001019060200180831161010757829003601f168201915b505050505081565b60606000805461013b9061052d565b80601f01602080910402602001604051908101604052809291908181526020018280546101679061052d565b80156101b45780601f10610189576101008083540402835291602001916101b4565b820191906000526020600020905b81548152906001019060200180831161019757829003601f168201915b5050505050905090565b80600090805190602001906101d4929190610210565b507f13c98778b0c1a086bb98d7f1986e15788b5d3a1ad4c492e1d78f1c4cc51c20cf60006040516102059190610437565b60405180910390a150565b82805461021c9061052d565b90600052602060002090601f01602090048101928261023e5760008555610285565b82601f1061025757805160ff1916838001178555610285565b82800160010185558215610285579182015b82811115610284578251825591602001919060010190610269565b5b5090506102929190610296565b5090565b5b808211156102af576000816000905550600101610297565b5090565b60006102c66102c18461048a565b610459565b9050828152602081018484840111156102de57600080fd5b6102e98482856104eb565b509392505050565b600082601f83011261030257600080fd5b81356103128482602086016102b3565b91505092915050565b60006020828403121561032d57600080fd5b600082013567ffffffffffffffff81111561034757600080fd5b610353848285016102f1565b91505092915050565b6000610367826104cf565b61037181856104da565b93506103818185602086016104fa565b61038a816105bd565b840191505092915050565b600081546103a28161052d565b6103ac81866104da565b945060018216600081146103c757600181146103d95761040c565b60ff198316865260208601935061040c565b6103e2856104ba565b60005b83811015610404578154818901526001820191506020810190506103e5565b808801955050505b50505092915050565b6000602082019050818103600083015261042f818461035c565b905092915050565b600060208201905081810360008301526104518184610395565b905092915050565b6000604051905081810181811067ffffffffffffffff821117156104805761047f61058e565b5b8060405250919050565b600067ffffffffffffffff8211156104a5576104a461058e565b5b601f19601f8301169050602081019050919050565b60008190508160005260206000209050919050565b600081519050919050565b600082825260208201905092915050565b82818337600083830152505050565b60005b838110156105185780820151818401526020810190506104fd565b83811115610527576000848401525b50505050565b6000600282049050600182168061054557607f821691505b602082108114156105595761055861055f565b5b50919050565b7f4e487b7100000000000000000000000000000000000000000000000000000000600052602260045260246000fd5b7f4e487b7100000000000000000000000000000000000000000000000000000000600052604160045260246000fd5b6000601f19601f830116905091905056fea2646970667358221220e5e6d533cea36172ccb27b0b4b1fcbd8094d666036f96a72168c445788902b3764736f6c63430008000033",
  "linkReferences": {},
  "deployedLinkReferences": {}
}